:0200000480007A
:100000006F00C0006F0000006F00C0029702000088
:10001000938282027390523073500030735040309C
:10002000971100009381013517410200130181BE31
:100030006F00001E130101F823201100232221006C
:10004000232431002326410023285100232A610064
:10005000232C7100232E8100232091022322A10250
:100060002324B1022326C1022328D102232AE1023C
:10007000232CF102232E0103232011052322210525
:10008000232431052326410523285105232A610510
:10009000232C7105232E8105232091072322A107FC
:1000A0002324B1072326C1072328D107232AE107E8
:1000B000232CF107F3221034232E5106732520340C
:1000C000F325103413060100EF0040487310153477
:1000D000B72200009382028073A0023083200100C7
:1000E00003214100832181000322C10083220101F9
:1000F00003234101832381010324C10183240102DD
:1001000003254102832581020326C10283260103C0
:1001100003274103832781030328C10383280104A4
:100120000329410483298104032AC104832A010588
:10013000032B4105832B8105032CC105832C01066C
:10014000032D4106832D8106032EC106832E010750
:10015000032F4107832F810713010108730020300B
:10016000130101FE232E8100130401022326A4FEA5
:100170002324B4FE2322C4FE6F00C0028327C4FEE2
:1001800003A70700832784FE23A0E7008327C4FE7C
:10019000938747002326F4FE832784FE9387470036
:1001A0002324F4FE032784FE832744FEE3F8E7FCC0
:1001B000130000000324C101130101026780000045
:1001C000130101FD2326810213040103232EA4FC45
:1001D000232CB4FC8327C4FD2326F4FE6F0080018A
:1001E0008327C4FE23A007008327C4FE938747000C
:1001F0002326F4FE0327C4FE832784FDE3F2E7FEF3
:10020000130000000324C1021301010367800000F2
:10021000130101FE232E1100232C8100130401027F
:10022000B7170080938707B62326F4FE8327C4FE02
:100230002320F4FE232204FE232404FE13860181DE
:10024000B7170080938507B7B7170080138507B7E6
:10025000EFF01FF1138601899385018113850181D8
:10026000EFF01FF09385018A13850189EFF05FF5A8
:100270009385018A1385018AEFF09FF4930704FEAA
:100280009385070013051000EF0090001300000095
:100290008320C10103248101130101026780000052
:1002A000130101FF23268100130401011300000044
:1002B0000324C1001301010167800000130101FD47
:1002C0002326810213040103232EA4FCF32740F10B
:1002D0002326F4FE8327C4FE2324F4FE37070040C0
:1002E0008327C4FD93D75700832684FE9396560038
:1002F000B386F600B717000093870780B387F60030
:1003000093972700B307F70083A707002322F4FE83
:100310008327C4FD93F7F70113071000B317F70005
:1003200093C7F7FF032744FEB377F7002322F4FEB9
:10033000370700408327C4FD93D75700832684FEE8
:1003400093965600B386F600B71700009387078090
:10035000B387F60093972700B307F700032744FEFF
:1003600023A0E700130000000324C10213010103CE
:1003700067800000130101FE232E81001304010297
:10038000F32740F12326F4FE8327C4FE2324F4FE42
:1003900037070040832784FE938707209397C70081
:1003A000B307F70083A74700138507000324C101A3
:1003B0001301010267800000130101FD2326810261
:1003C00013040103232EA4FCF32740F12326F4FE9B
:1003D0008327C4FE2324F4FE37070040832784FECE
:1003E000938707209397C700B307F7000327C4FD3F
:1003F00023A2E700130000000324C102130101033C
:1004000067800000130101FE232E1100232C8100C0
:100410001304010293070008F3B747302326F4FEC4
:10042000EF00002437070044B7C70000B307F70008
:1004300003A8C7FF83A787FF83A5018903A6418976
:1004400037050044732740F12324E4FE832884FE0B
:10045000B386B700138306003333F3003307C800B5
:10046000B307E3001387070093870600130807000C
:1004700037170000130707803387E800131737008A
:100480003307E5002320F700232207019307000824
:10049000F3A747302322F4FE130000008320C1019C
:1004A000032481011301010267800000130101FE92
:1004B000232E1100232C810013040102EFF09FEB87
:1004C0002326A4FEA30504FEB71700800327C4FE5D
:1004D00013172700938707B8B307F70083A7070010
:1004E000E780070093070500A305F4FE0325C4FE7B
:1004F000EFF09FEC0347B4FE930710006316F7007C
:100500000325C4FEEFF09FDB130000008320C10130
:10051000032481011301010267800000130101FF20
:10052000232611002324810013040101EF00C011D0
:10053000B707004423A00700130000008320C10078
:10054000032481001301010167800000130101FBF6
:10055000232611042324810413040105232EA4FA65
:10056000232CB4FA8327C4FB63D207020327C4FBFE
:10057000B707008093C7F7FF3377F7009307B00002
:100580006316F700EFF09FF26F00800A8327C4FB29
:1005900063D207020327C4FBB707008093C7F7FFA6
:1005A0003377F700930770006316F700EFF09FE5CD
:1005B0006F0000088327C4FB63D207020327C4FB34
:1005C000B707008093C7F7FF3377F7009307300032
:1005D0006316F700EFF09FF46F008005F3274034B7
:1005E0002326F4FE8327C4FE2324F4FEF3273034AD
:1005F0002322F4FE832744FE2320F4FEF327503009
:10060000232EF4FC8327C4FD232CF4FCF3270034B1
:10061000232AF4FC832744FD2328F4FCF32700302D
:100620002326F4FC8327C4FC2324F4FC730010006D
:10063000832784FB138507008320C10403248104DE
:100640001301010567800000130101FF232611003B
:1006500023248100130401011305A000EF000042D0
:10066000130101FF23268100130401011300000080
:100670000324C1001301010167800000130101FF81
:10068000232681001304010193070000138507004E
:100690000324C1001301010167800000130101FF61
:1006A000232681001304010193070000138507002E
:1006B0000324C1001301010167800000130101FF41
:1006C000232681001304010193070000138507000E
:1006D0000324C1001301010167800000130101FF21
:1006E00023268100130401019307000013850700EE
:1006F0000324C1001301010167800000130101FF01
:1007000023268100130401019307000013850700CD
:100710000324C1001301010167800000130101FFE0
:1007200023268100130401019307000013850700AD
:100730000324C1001301010167800000130101FFC0
:10074000232681001304010193070000138507008D
:100750000324C1001301010167800000130101FFA0
:10076000232681001304010193070000138507006D
:100770000324C1001301010167800000130101FF80
:10078000232681001304010193070000138507004D
:100790000324C1001301010167800000130101FF60
:1007A000232681001304010193070000138507002D
:1007B0000324C1001301010167800000130101FF40
:1007C000232681001304010193070000138507000D
:1007D0000324C1001301010167800000130101FF20
:1007E00023268100130401019307000013850700ED
:1007F0000324C1001301010167800000130101FF00
:1008000023268100130401019307000013850700CC
:100810000324C1001301010167800000130101FFDF
:1008200023268100130401019307000013850700AC
:100830000324C1001301010167800000130101FFBF
:10084000232681001304010193070000138507008C
:100850000324C1001301010167800000130101FF9F
:10086000232681001304010193070000138507006C
:100870000324C1001301010167800000130101FF7F
:10088000232681001304010193070000138507004C
:100890000324C1001301010167800000130101FF5F
:1008A000232681001304010193070000138507002C
:1008B0000324C1001301010167800000130101FF3F
:1008C000232681001304010193070000138507000C
:1008D0000324C1001301010167800000130101FF1F
:1008E00023268100130401019307000013850700EC
:1008F0000324C1001301010167800000130101FFFF
:1009000023268100130401019307000013850700CB
:100910000324C1001301010167800000130101FFDE
:1009200023268100130401019307000013850700AB
:100930000324C1001301010167800000130101FFBE
:10094000232681001304010193070000138507008B
:100950000324C1001301010167800000130101FF9E
:10096000232681001304010193070000138507006B
:100970000324C1001301010167800000130101FF7E
:10098000232681001304010193070000138507004B
:100990000324C1001301010167800000130101FF5E
:1009A000232681001304010193070000138507002B
:1009B0000324C1001301010167800000130101FF3E
:1009C000232681001304010193070000138507000B
:1009D0000324C1001301010167800000130101FF1E
:1009E00023268100130401019307000013850700EB
:1009F0000324C1001301010167800000130101FFFE
:100A000023268100130401019307000013850700CA
:100A10000324C1001301010167800000130101FFDD
:100A200023268100130401019307000013850700AA
:100A30000324C1001301010167800000130101FFBD
:100A4000232681001304010193070000138507008A
:100A50000324C1001301010167800000130101FF9D
:100A6000232681001304010193070000138507006A
:100A70000324C1001301010167800000130101FE7E
:100A8000232E8100130401022326A4FE6F00000020
:100A9000130101FE232E810013040102B717008009
:100AA00083A707B72326F4FEB717008083A707B7ED
:100AB000938707082324F4FEB717008083A707B79E
:100AC0009387070A2322F4FE8327C4FE23A007008E
:100AD000832784FE1307F0FF23A0E7008327C4FECB
:100AE0001307500023A0E700832744FE13071000DC
:100AF00023A0E700832744FE1307100023A0E7008C
:100B000023AC01886F00000183A781891387170038
:100B100023ACE18803A78189B7871E009387F74735
:100B2000E3F4E7FE832744FE23A0070023AC0188FB
:100B30006F00000183A781891387170023ACE18828
:100B400003A78189B7871E009387F747E3F4E7FE81
:100B50006FF05FFA000000000000000000000000DD
:100B600068656C6C6F000000000000000000000071
:100B70000000057000000000000000000000000000
:100B80007C0600809C060080BC060080DC0600809D
:100B9000FC0600801C0700803C0700805C0700808A
:100BA0007C0700809C070080BC070080DC07008079
:100BB000FC0700801C0800803C0800805C08008066
:100BC0007C0800809C080080BC080080DC08008055
:100BD000FC0800801C0900803C0900805C09008042
:100BE0007C0900809C090080BC090080DC09008031
:100BF000FC0900801C0A00803C0A00805C0A00801E
:040000058000000077
:00000001FF
